{
  "contractName": "iVote",
  "abi": [
    {
      "inputs": [],
      "stateMutability": "nonpayable",
      "type": "constructor"
    },
    {
      "anonymous": false,
      "inputs": [
        {
          "indexed": true,
          "internalType": "address",
          "name": "previousOwner",
          "type": "address"
        },
        {
          "indexed": true,
          "internalType": "address",
          "name": "newOwner",
          "type": "address"
        }
      ],
      "name": "OwnershipTransferred",
      "type": "event"
    },
    {
      "anonymous": false,
      "inputs": [
        {
          "indexed": false,
          "internalType": "uint256",
          "name": "electionId",
          "type": "uint256"
        }
      ],
      "name": "electionCancelled",
      "type": "event"
    },
    {
      "anonymous": false,
      "inputs": [
        {
          "indexed": false,
          "internalType": "uint256",
          "name": "id",
          "type": "uint256"
        },
        {
          "indexed": false,
          "internalType": "string[]",
          "name": "name",
          "type": "string[]"
        }
      ],
      "name": "electionCreated",
      "type": "event"
    },
    {
      "anonymous": false,
      "inputs": [
        {
          "indexed": false,
          "internalType": "uint256",
          "name": "id",
          "type": "uint256"
        },
        {
          "indexed": false,
          "internalType": "string",
          "name": "name",
          "type": "string"
        },
        {
          "indexed": false,
          "internalType": "address",
          "name": "voter",
          "type": "address"
        }
      ],
      "name": "voted",
      "type": "event"
    },
    {
      "inputs": [],
      "name": "_electionIdTracker",
      "outputs": [
        {
          "internalType": "uint256",
          "name": "_value",
          "type": "uint256"
        }
      ],
      "stateMutability": "view",
      "type": "function",
      "constant": true
    },
    {
      "inputs": [
        {
          "internalType": "uint256",
          "name": "",
          "type": "uint256"
        },
        {
          "internalType": "string",
          "name": "",
          "type": "string"
        }
      ],
      "name": "candidateVotes",
      "outputs": [
        {
          "internalType": "uint256",
          "name": "",
          "type": "uint256"
        }
      ],
      "stateMutability": "view",
      "type": "function",
      "constant": true
    },
    {
      "inputs": [
        {
          "internalType": "uint256",
          "name": "",
          "type": "uint256"
        },
        {
          "internalType": "address",
          "name": "",
          "type": "address"
        }
      ],
      "name": "hasVoted",
      "outputs": [
        {
          "internalType": "bool",
          "name": "",
          "type": "bool"
        }
      ],
      "stateMutability": "view",
      "type": "function",
      "constant": true
    },
    {
      "inputs": [
        {
          "internalType": "uint256",
          "name": "",
          "type": "uint256"
        }
      ],
      "name": "idToElection",
      "outputs": [
        {
          "internalType": "uint256",
          "name": "numberOfCandidates",
          "type": "uint256"
        },
        {
          "internalType": "uint256",
          "name": "duration",
          "type": "uint256"
        },
        {
          "internalType": "uint256",
          "name": "startTime",
          "type": "uint256"
        },
        {
          "internalType": "bool",
          "name": "isActive",
          "type": "bool"
        }
      ],
      "stateMutability": "view",
      "type": "function",
      "constant": true
    },
    {
      "inputs": [],
      "name": "owner",
      "outputs": [
        {
          "internalType": "address",
          "name": "",
          "type": "address"
        }
      ],
      "stateMutability": "view",
      "type": "function",
      "constant": true
    },
    {
      "inputs": [],
      "name": "renounceOwnership",
      "outputs": [],
      "stateMutability": "nonpayable",
      "type": "function"
    },
    {
      "inputs": [
        {
          "internalType": "address",
          "name": "newOwner",
          "type": "address"
        }
      ],
      "name": "transferOwnership",
      "outputs": [],
      "stateMutability": "nonpayable",
      "type": "function"
    },
    {
      "inputs": [
        {
          "internalType": "uint256",
          "name": "numberOfCandidates",
          "type": "uint256"
        },
        {
          "internalType": "string[]",
          "name": "namesOfCandidates",
          "type": "string[]"
        },
        {
          "internalType": "uint256",
          "name": "duration",
          "type": "uint256"
        }
      ],
      "name": "startElection",
      "outputs": [],
      "stateMutability": "nonpayable",
      "type": "function"
    },
    {
      "inputs": [
        {
          "internalType": "uint256",
          "name": "electionId",
          "type": "uint256"
        },
        {
          "internalType": "string",
          "name": "candidate",
          "type": "string"
        },
        {
          "internalType": "bool",
          "name": "panic",
          "type": "bool"
        }
      ],
      "name": "voteForCandidate",
      "outputs": [],
      "stateMutability": "nonpayable",
      "type": "function"
    },
    {
      "inputs": [
        {
          "internalType": "uint256",
          "name": "electionId",
          "type": "uint256"
        }
      ],
      "name": "cancleElection",
      "outputs": [],
      "stateMutability": "nonpayable",
      "type": "function"
    }
  ],
  "bytecode": "0x608060405234801561001057600080fd5b5061002d61002261003260201b60201c565b61003a60201b60201c565b6100fe565b600033905090565b60008060009054906101000a900473ffffffffffffffffffffffffffffffffffffffff169050816000806101000a81548173ffffffffffffffffffffffffffffffffffffffff021916908373ffffffffffffffffffffffffffffffffffffffff1602179055508173ffffffffffffffffffffffffffffffffffffffff168173ffffffffffffffffffffffffffffffffffffffff167f8be0079c531659141344cd1fd0a4f28419497f9722a3daafe3b4186f6b6457e060405160405180910390a35050565b611ad88061010d6000396000f3fe608060405234801561001057600080fd5b506004361061009e5760003560e01c8063715018a611610066578063715018a61461016e5780638da5cb5b14610178578063a6c7305c14610196578063d60bbc62146101b4578063f2fde38b146101d05761009e565b806305f37a99146100a357806326185842146100d357806343859632146100ef5780634669b0d91461011f57806356596a391461013b575b600080fd5b6100bd60048036038101906100b89190611065565b6101ec565b6040516100ca91906114de565b60405180910390f35b6100ed60048036038101906100e891906110b9565b610227565b005b61010960048036038101906101049190610fc2565b610652565b60405161011691906113c3565b60405180910390f35b61013960048036038101906101349190610f99565b610681565b005b61015560048036038101906101509190610f99565b610832565b6040516101659493929190611567565b60405180910390f35b61017661086f565b005b6101806108f7565b60405161018d91906113a8565b60405180910390f35b61019e610920565b6040516101ab91906114de565b60405180910390f35b6101ce60048036038101906101c99190610ffe565b61092c565b005b6101ea60048036038101906101e59190610f70565b610add565b005b600360205281600052604060002081805160208101820180518482526020830160208501208183528095505050505050600091509150505481565b8282600060026000848152602001908152602001600020600101805480602002602001604051908101604052809291908181526020016000905b8282101561030d5783829060005260206000200180546102809061177f565b80601f01602080910402602001604051908101604052809291908181526020018280546102ac9061177f565b80156102f95780601f106102ce576101008083540402835291602001916102f9565b820191906000526020600020905b8154815290600101906020018083116102dc57829003601f168201915b505050505081526020019060010190610261565b505050509050600080600090505b8251811015610648578380519060200120838281518110610365577f4e487b7100000000000000000000000000000000000000000000000000000000600052603260045260246000fd5b602002602001015180519060200120141561063557600191506103bd600260008a815260200190815260200160002060020154600260008b815260200190815260200160002060030154610bd590919063ffffffff16565b42106103fe576040517f08c379a00000000000000000000000000000000000000000000000000000000081526004016103f5906113de565b60405180910390fd5b60001515600460008a815260200190815260200160002060003373ffffffffffffffffffffffffffffffffffffffff1673ffffffffffffffffffffffffffffffffffffffff16815260200190815260200160002060009054906101000a900460ff161515146104a2576040517f08c379a00000000000000000000000000000000000000000000000000000000081526004016104999061141e565b60405180910390fd5b60011515600260008a815260200190815260200160002060040160009054906101000a900460ff1615151461050c576040517f08c379a00000000000000000000000000000000000000000000000000000000081526004016105039061149e565b60405180910390fd5b6000151586151514156105f95761055c6001600360008b81526020019081526020016000208960405161053f9190611391565b908152602001604051809103902054610bd590919063ffffffff16565b600360008a81526020019081526020016000208860405161057d9190611391565b9081526020016040518091039020819055506001600460008a815260200190815260200160002060003373ffffffffffffffffffffffffffffffffffffffff1673ffffffffffffffffffffffffffffffffffffffff16815260200190815260200160002060006101000a81548160ff0219169083151502179055505b7f206b31bab444765b80acc6f5a62c907160ec6f0ba3ccf6adad71ea5546a8377588883360405161062c93929190611529565b60405180910390a15b8080610640906117e2565b91505061031b565b5050505050505050565b60046020528160005260406000206020528060005260406000206000915091509054906101000a900460ff1681565b610689610beb565b73ffffffffffffffffffffffffffffffffffffffff166106a76108f7565b73ffffffffffffffffffffffffffffffffffffffff16146106fd576040517f08c379a00000000000000000000000000000000000000000000000000000000081526004016106f49061145e565b60405180910390fd5b6107076001610bf3565b811115610749576040517f08c379a0000000000000000000000000000000000000000000000000000000008152600401610740906114be565b60405180910390fd5b61078860026000838152602001908152602001600020600201546002600084815260200190815260200160002060030154610bd590919063ffffffff16565b42106107c9576040517f08c379a00000000000000000000000000000000000000000000000000000000081526004016107c09061143e565b60405180910390fd5b60006002600083815260200190815260200160002060040160006101000a81548160ff0219169083151502179055507fb1bde38659db56782afe15abfe982b76e78bf85947143254abfb819b8ac68cf28160405161082791906114de565b60405180910390a150565b60026020528060005260406000206000915090508060000154908060020154908060030154908060040160009054906101000a900460ff16905084565b610877610beb565b73ffffffffffffffffffffffffffffffffffffffff166108956108f7565b73ffffffffffffffffffffffffffffffffffffffff16146108eb576040517f08c379a00000000000000000000000000000000000000000000000000000000081526004016108e29061145e565b60405180910390fd5b6108f56000610c01565b565b60008060009054906101000a900473ffffffffffffffffffffffffffffffffffffffff16905090565b60018060000154905081565b610934610beb565b73ffffffffffffffffffffffffffffffffffffffff166109526108f7565b73ffffffffffffffffffffffffffffffffffffffff16146109a8576040517f08c379a000000000000000000000000000000000000000000000000000000000815260040161099f9061145e565b60405180910390fd5b6109b26001610cc5565b60006109be6001610bf3565b905082518414610a03576040517f08c379a00000000000000000000000000000000000000000000000000000000081526004016109fa9061147e565b60405180910390fd5b6040518060a001604052808581526020018481526020018381526020014281526020016001151581525060026000838152602001908152602001600020600082015181600001556020820151816001019080519060200190610a66929190610cdb565b50604082015181600201556060820151816003015560808201518160040160006101000a81548160ff0219169083151502179055509050507ff8f5337420a0ab0c0ee498166a6f5a0668ec853c726f3805747c9528c3d535318184604051610acf9291906114f9565b60405180910390a150505050565b610ae5610beb565b73ffffffffffffffffffffffffffffffffffffffff16610b036108f7565b73ffffffffffffffffffffffffffffffffffffffff1614610b59576040517f08c379a0000000000000000000000000000000000000000000000000000000008152600401610b509061145e565b60405180910390fd5b600073ffffffffffffffffffffffffffffffffffffffff168173ffffffffffffffffffffffffffffffffffffffff161415610bc9576040517f08c379a0000000000000000000000000000000000000000000000000000000008152600401610bc0906113fe565b60405180910390fd5b610bd281610c01565b50565b60008183610be3919061169f565b905092915050565b600033905090565b600081600001549050919050565b60008060009054906101000a900473ffffffffffffffffffffffffffffffffffffffff169050816000806101000a81548173ffffffffffffffffffffffffffffffffffffffff021916908373ffffffffffffffffffffffffffffffffffffffff1602179055508173ffffffffffffffffffffffffffffffffffffffff168173ffffffffffffffffffffffffffffffffffffffff167f8be0079c531659141344cd1fd0a4f28419497f9722a3daafe3b4186f6b6457e060405160405180910390a35050565b6001816000016000828254019250508190555050565b828054828255906000526020600020908101928215610d2a579160200282015b82811115610d29578251829080519060200190610d19929190610d3b565b5091602001919060010190610cfb565b5b509050610d379190610dc1565b5090565b828054610d479061177f565b90600052602060002090601f016020900481019282610d695760008555610db0565b82601f10610d8257805160ff1916838001178555610db0565b82800160010185558215610db0579182015b82811115610daf578251825591602001919060010190610d94565b5b509050610dbd9190610de5565b5090565b5b80821115610de15760008181610dd89190610e02565b50600101610dc2565b5090565b5b80821115610dfe576000816000905550600101610de6565b5090565b508054610e0e9061177f565b6000825580601f10610e205750610e3f565b601f016020900490600052602060002090810190610e3e9190610de5565b5b50565b6000610e55610e50846115d1565b6115ac565b9050808382526020820190508260005b85811015610e955781358501610e7b8882610f31565b845260208401935060208301925050600181019050610e65565b5050509392505050565b6000610eb2610ead846115fd565b6115ac565b905082815260208101848484011115610eca57600080fd5b610ed584828561173d565b509392505050565b600081359050610eec81611a5d565b92915050565b600082601f830112610f0357600080fd5b8135610f13848260208601610e42565b91505092915050565b600081359050610f2b81611a74565b92915050565b600082601f830112610f4257600080fd5b8135610f52848260208601610e9f565b91505092915050565b600081359050610f6a81611a8b565b92915050565b600060208284031215610f8257600080fd5b6000610f9084828501610edd565b91505092915050565b600060208284031215610fab57600080fd5b6000610fb984828501610f5b565b91505092915050565b60008060408385031215610fd557600080fd5b6000610fe385828601610f5b565b9250506020610ff485828601610edd565b9150509250929050565b60008060006060848603121561101357600080fd5b600061102186828701610f5b565b935050602084013567ffffffffffffffff81111561103e57600080fd5b61104a86828701610ef2565b925050604061105b86828701610f5b565b9150509250925092565b6000806040838503121561107857600080fd5b600061108685828601610f5b565b925050602083013567ffffffffffffffff8111156110a357600080fd5b6110af85828601610f31565b9150509250929050565b6000806000606084860312156110ce57600080fd5b60006110dc86828701610f5b565b935050602084013567ffffffffffffffff8111156110f957600080fd5b61110586828701610f31565b925050604061111686828701610f1c565b9150509250925092565b600061112c83836111c7565b905092915050565b61113d816116f5565b82525050565b600061114e8261163e565b6111588185611661565b93508360208202850161116a8561162e565b8060005b858110156111a657848403895281516111878582611120565b945061119283611654565b925060208a0199505060018101905061116e565b50829750879550505050505092915050565b6111c181611707565b82525050565b60006111d282611649565b6111dc8185611672565b93506111ec81856020860161174c565b6111f5816118b8565b840191505092915050565b600061120b82611649565b6112158185611683565b935061122581856020860161174c565b61122e816118b8565b840191505092915050565b600061124482611649565b61124e8185611694565b935061125e81856020860161174c565b80840191505092915050565b6000611277601283611683565b9150611282826118c9565b602082019050919050565b600061129a602683611683565b91506112a5826118f2565b604082019050919050565b60006112bd601783611683565b91506112c882611941565b602082019050919050565b60006112e0601a83611683565b91506112eb8261196a565b602082019050919050565b6000611303602083611683565b915061130e82611993565b602082019050919050565b6000611326603783611683565b9150611331826119bc565b604082019050919050565b6000611349601683611683565b915061135482611a0b565b602082019050919050565b600061136c601883611683565b915061137782611a34565b602082019050919050565b61138b81611733565b82525050565b600061139d8284611239565b915081905092915050565b60006020820190506113bd6000830184611134565b92915050565b60006020820190506113d860008301846111b8565b92915050565b600060208201905081810360008301526113f78161126a565b9050919050565b600060208201905081810360008301526114178161128d565b9050919050565b60006020820190508181036000830152611437816112b0565b9050919050565b60006020820190508181036000830152611457816112d3565b9050919050565b60006020820190508181036000830152611477816112f6565b9050919050565b6000602082019050818103600083015261149781611319565b9050919050565b600060208201905081810360008301526114b78161133c565b9050919050565b600060208201905081810360008301526114d78161135f565b9050919050565b60006020820190506114f36000830184611382565b92915050565b600060408201905061150e6000830185611382565b81810360208301526115208184611143565b90509392505050565b600060608201905061153e6000830186611382565b81810360208301526115508185611200565b905061155f6040830184611134565b949350505050565b600060808201905061157c6000830187611382565b6115896020830186611382565b6115966040830185611382565b6115a360608301846111b8565b95945050505050565b60006115b66115c7565b90506115c282826117b1565b919050565b6000604051905090565b600067ffffffffffffffff8211156115ec576115eb611889565b5b602082029050602081019050919050565b600067ffffffffffffffff82111561161857611617611889565b5b611621826118b8565b9050602081019050919050565b6000819050602082019050919050565b600081519050919050565b600081519050919050565b6000602082019050919050565b600082825260208201905092915050565b600082825260208201905092915050565b600082825260208201905092915050565b600081905092915050565b60006116aa82611733565b91506116b583611733565b9250827fffffffffffffffffffffffffffffffffffffffffffffffffffffffffffffffff038211156116ea576116e961182b565b5b828201905092915050565b600061170082611713565b9050919050565b60008115159050919050565b600073ffffffffffffffffffffffffffffffffffffffff82169050919050565b6000819050919050565b82818337600083830152505050565b60005b8381101561176a57808201518184015260208101905061174f565b83811115611779576000848401525b50505050565b6000600282049050600182168061179757607f821691505b602082108114156117ab576117aa61185a565b5b50919050565b6117ba826118b8565b810181811067ffffffffffffffff821117156117d9576117d8611889565b5b80604052505050565b60006117ed82611733565b91507fffffffffffffffffffffffffffffffffffffffffffffffffffffffffffffffff8214156118205761181f61182b565b5b600182019050919050565b7f4e487b7100000000000000000000000000000000000000000000000000000000600052601160045260246000fd5b7f4e487b7100000000000000000000000000000000000000000000000000000000600052602260045260246000fd5b7f4e487b7100000000000000000000000000000000000000000000000000000000600052604160045260246000fd5b6000601f19601f8301169050919050565b7f456c656374696f6e2068617320656e6465640000000000000000000000000000600082015250565b7f4f776e61626c653a206e6577206f776e657220697320746865207a65726f206160008201527f6464726573730000000000000000000000000000000000000000000000000000602082015250565b7f20757365722068617320616c726561647920766f746564000000000000000000600082015250565b7f456c656374696f6e2068617320616c726561647920656e646564000000000000600082015250565b7f4f776e61626c653a2063616c6c6572206973206e6f7420746865206f776e6572600082015250565b7f4e756d626572206f662063616e646964617465732073686f756c64206265206560008201527f7175616c20746f206e756d626572206f66206e616d6573000000000000000000602082015250565b7f456c656374696f6e206973206e6f742061637469766500000000000000000000600082015250565b7f656c656374696f6e496420646f65736e27742065786973740000000000000000600082015250565b611a66816116f5565b8114611a7157600080fd5b50565b611a7d81611707565b8114611a8857600080fd5b50565b611a9481611733565b8114611a9f57600080fd5b5056fea2646970667358221220bf61b5316f50a713d67768272139465e96b2c200b2d0bbda5c93265768cab16164736f6c63430008030033",
  "immutableReferences": {},
  "source": "/**\r\n *Submitted for verification at Etherscan.io on 2021-11-05\r\n*/\r\n\r\n// SPDX-License-Identifier: MIT \r\npragma solidity ^0.8.3;\r\n\r\nlibrary Counters {\r\n    struct Counter {\r\n        // This variable should never be directly accessed by users of the library: interactions must be restricted to\r\n        // the library's function. As of Solidity v0.5.2, this cannot be enforced, though there is a proposal to add\r\n        // this feature: see https://github.com/ethereum/solidity/issues/4637\r\n        uint256 _value; // default: 0\r\n    }\r\n\r\n    function current(Counter storage counter) internal view returns (uint256) {\r\n        return counter._value;\r\n    }\r\n\r\n    function increment(Counter storage counter) internal {\r\n        unchecked {\r\n            counter._value += 1;\r\n        }\r\n    }\r\n\r\n    function decrement(Counter storage counter) internal {\r\n        uint256 value = counter._value;\r\n        require(value > 0, \"Counter: decrement overflow\");\r\n        unchecked {\r\n            counter._value = value - 1;\r\n        }\r\n    }\r\n\r\n    function reset(Counter storage counter) internal {\r\n        counter._value = 0;\r\n    }\r\n}\r\nabstract contract Context {\r\n    function _msgSender() internal view virtual returns (address) {\r\n        return msg.sender;\r\n    }\r\n\r\n    function _msgData() internal view virtual returns (bytes calldata) {\r\n        return msg.data;\r\n    }\r\n}\r\n\r\nlibrary SafeMath {\r\n    /**\r\n     * @dev Returns the addition of two unsigned integers, with an overflow flag.\r\n     *\r\n     * _Available since v3.4._\r\n     */\r\n    function tryAdd(uint256 a, uint256 b) internal pure returns (bool, uint256) {\r\n        unchecked {\r\n            uint256 c = a + b;\r\n            if (c < a) return (false, 0);\r\n            return (true, c);\r\n        }\r\n    }\r\n\r\n    /**\r\n     * @dev Returns the substraction of two unsigned integers, with an overflow flag.\r\n     *\r\n     * _Available since v3.4._\r\n     */\r\n    function trySub(uint256 a, uint256 b) internal pure returns (bool, uint256) {\r\n        unchecked {\r\n            if (b > a) return (false, 0);\r\n            return (true, a - b);\r\n        }\r\n    }\r\n\r\n    /**\r\n     * @dev Returns the multiplication of two unsigned integers, with an overflow flag.\r\n     *\r\n     * _Available since v3.4._\r\n     */\r\n    function tryMul(uint256 a, uint256 b) internal pure returns (bool, uint256) {\r\n        unchecked {\r\n            // Gas optimization: this is cheaper than requiring 'a' not being zero, but the\r\n            // benefit is lost if 'b' is also tested.\r\n            // See: https://github.com/OpenZeppelin/openzeppelin-contracts/pull/522\r\n            if (a == 0) return (true, 0);\r\n            uint256 c = a * b;\r\n            if (c / a != b) return (false, 0);\r\n            return (true, c);\r\n        }\r\n    }\r\n\r\n    /**\r\n     * @dev Returns the division of two unsigned integers, with a division by zero flag.\r\n     *\r\n     * _Available since v3.4._\r\n     */\r\n    function tryDiv(uint256 a, uint256 b) internal pure returns (bool, uint256) {\r\n        unchecked {\r\n            if (b == 0) return (false, 0);\r\n            return (true, a / b);\r\n        }\r\n    }\r\n\r\n    /**\r\n     * @dev Returns the remainder of dividing two unsigned integers, with a division by zero flag.\r\n     *\r\n     * _Available since v3.4._\r\n     */\r\n    function tryMod(uint256 a, uint256 b) internal pure returns (bool, uint256) {\r\n        unchecked {\r\n            if (b == 0) return (false, 0);\r\n            return (true, a % b);\r\n        }\r\n    }\r\n\r\n    /**\r\n     * @dev Returns the addition of two unsigned integers, reverting on\r\n     * overflow.\r\n     *\r\n     * Counterpart to Solidity's `+` operator.\r\n     *\r\n     * Requirements:\r\n     *\r\n     * - Addition cannot overflow.\r\n     */\r\n    function add(uint256 a, uint256 b) internal pure returns (uint256) {\r\n        return a + b;\r\n    }\r\n\r\n    /**\r\n     * @dev Returns the subtraction of two unsigned integers, reverting on\r\n     * overflow (when the result is negative).\r\n     *\r\n     * Counterpart to Solidity's `-` operator.\r\n     *\r\n     * Requirements:\r\n     *\r\n     * - Subtraction cannot overflow.\r\n     */\r\n    function sub(uint256 a, uint256 b) internal pure returns (uint256) {\r\n        return a - b;\r\n    }\r\n\r\n    /**\r\n     * @dev Returns the multiplication of two unsigned integers, reverting on\r\n     * overflow.\r\n     *\r\n     * Counterpart to Solidity's `*` operator.\r\n     *\r\n     * Requirements:\r\n     *\r\n     * - Multiplication cannot overflow.\r\n     */\r\n    function mul(uint256 a, uint256 b) internal pure returns (uint256) {\r\n        return a * b;\r\n    }\r\n\r\n    /**\r\n     * @dev Returns the integer division of two unsigned integers, reverting on\r\n     * division by zero. The result is rounded towards zero.\r\n     *\r\n     * Counterpart to Solidity's `/` operator.\r\n     *\r\n     * Requirements:\r\n     *\r\n     * - The divisor cannot be zero.\r\n     */\r\n    function div(uint256 a, uint256 b) internal pure returns (uint256) {\r\n        return a / b;\r\n    }\r\n\r\n    /**\r\n     * @dev Returns the remainder of dividing two unsigned integers. (unsigned integer modulo),\r\n     * reverting when dividing by zero.\r\n     *\r\n     * Counterpart to Solidity's `%` operator. This function uses a `revert`\r\n     * opcode (which leaves remaining gas untouched) while Solidity uses an\r\n     * invalid opcode to revert (consuming all remaining gas).\r\n     *\r\n     * Requirements:\r\n     *\r\n     * - The divisor cannot be zero.\r\n     */\r\n    function mod(uint256 a, uint256 b) internal pure returns (uint256) {\r\n        return a % b;\r\n    }\r\n\r\n    /**\r\n     * @dev Returns the subtraction of two unsigned integers, reverting with custom message on\r\n     * overflow (when the result is negative).\r\n     *\r\n     * CAUTION: This function is deprecated because it requires allocating memory for the error\r\n     * message unnecessarily. For custom revert reasons use {trySub}.\r\n     *\r\n     * Counterpart to Solidity's `-` operator.\r\n     *\r\n     * Requirements:\r\n     *\r\n     * - Subtraction cannot overflow.\r\n     */\r\n    function sub(\r\n        uint256 a,\r\n        uint256 b,\r\n        string memory errorMessage\r\n    ) internal pure returns (uint256) {\r\n        unchecked {\r\n            require(b <= a, errorMessage);\r\n            return a - b;\r\n        }\r\n    }\r\n\r\n    /**\r\n     * @dev Returns the integer division of two unsigned integers, reverting with custom message on\r\n     * division by zero. The result is rounded towards zero.\r\n     *\r\n     * Counterpart to Solidity's `/` operator. Note: this function uses a\r\n     * `revert` opcode (which leaves remaining gas untouched) while Solidity\r\n     * uses an invalid opcode to revert (consuming all remaining gas).\r\n     *\r\n     * Requirements:\r\n     *\r\n     * - The divisor cannot be zero.\r\n     */\r\n    function div(\r\n        uint256 a,\r\n        uint256 b,\r\n        string memory errorMessage\r\n    ) internal pure returns (uint256) {\r\n        unchecked {\r\n            require(b > 0, errorMessage);\r\n            return a / b;\r\n        }\r\n    }\r\n\r\n    /**\r\n     * @dev Returns the remainder of dividing two unsigned integers. (unsigned integer modulo),\r\n     * reverting with custom message when dividing by zero.\r\n     *\r\n     * CAUTION: This function is deprecated because it requires allocating memory for the error\r\n     * message unnecessarily. For custom revert reasons use {tryMod}.\r\n     *\r\n     * Counterpart to Solidity's `%` operator. This function uses a `revert`\r\n     * opcode (which leaves remaining gas untouched) while Solidity uses an\r\n     * invalid opcode to revert (consuming all remaining gas).\r\n     *\r\n     * Requirements:\r\n     *\r\n     * - The divisor cannot be zero.\r\n     */\r\n    function mod(\r\n        uint256 a,\r\n        uint256 b,\r\n        string memory errorMessage\r\n    ) internal pure returns (uint256) {\r\n        unchecked {\r\n            require(b > 0, errorMessage);\r\n            return a % b;\r\n        }\r\n    }\r\n}\r\n\r\nabstract contract Ownable is Context {\r\n    address private _owner;\r\n\r\n    event OwnershipTransferred(address indexed previousOwner, address indexed newOwner);\r\n\r\n    /**\r\n     * @dev Initializes the contract setting the deployer as the initial owner.\r\n     */\r\n    constructor() {\r\n        _setOwner(_msgSender());\r\n    }\r\n\r\n    /**\r\n     * @dev Returns the address of the current owner.\r\n     */\r\n    function owner() public view virtual returns (address) {\r\n        return _owner;\r\n    }\r\n\r\n    /**\r\n     * @dev Throws if called by any account other than the owner.\r\n     */\r\n    modifier onlyOwner() {\r\n        require(owner() == _msgSender(), \"Ownable: caller is not the owner\");\r\n        _;\r\n    }\r\n\r\n    /**\r\n     * @dev Leaves the contract without owner. It will not be possible to call\r\n     * `onlyOwner` functions anymore. Can only be called by the current owner.\r\n     *\r\n     * NOTE: Renouncing ownership will leave the contract without an owner,\r\n     * thereby removing any functionality that is only available to the owner.\r\n     */\r\n    function renounceOwnership() public virtual onlyOwner {\r\n        _setOwner(address(0));\r\n    }\r\n\r\n    /**\r\n     * @dev Transfers ownership of the contract to a new account (`newOwner`).\r\n     * Can only be called by the current owner.\r\n     */\r\n    function transferOwnership(address newOwner) public virtual onlyOwner {\r\n        require(newOwner != address(0), \"Ownable: new owner is the zero address\");\r\n        _setOwner(newOwner);\r\n    }\r\n\r\n    function _setOwner(address newOwner) private {\r\n        address oldOwner = _owner;\r\n        _owner = newOwner;\r\n        emit OwnershipTransferred(oldOwner, newOwner);\r\n    }\r\n}\r\n\r\ncontract iVote is Ownable{\r\n    using Counters for Counters.Counter;\r\n\r\n    using SafeMath for uint;\r\n    \r\n  Counters.Counter public  _electionIdTracker; \r\n constructor(){}\r\n \r\n struct election{\r\n    uint256 numberOfCandidates; \r\n    string[] namesOfCandidates;\r\n    uint256 duration;\r\n    uint256 startTime;\r\n    bool isActive;\r\n }\r\n \r\n mapping(uint256 => election) public idToElection;\r\n mapping(uint256 => mapping( string => uint256)) public candidateVotes;\r\n mapping(uint256 => mapping( address => bool)) public hasVoted;\r\n \r\n event electionCreated(uint256 id, string[] name);\r\n event voted(uint256 id, string name, address voter);\r\n event electionCancelled(uint256 electionId);\r\n function startElection(uint256 numberOfCandidates, string[] memory namesOfCandidates, uint256 duration) external onlyOwner {  \r\n      _electionIdTracker.increment();\r\n      uint256 electionId = _electionIdTracker.current();\r\n      require(numberOfCandidates == (namesOfCandidates.length),\"Number of candidates should be equal to number of names\");\r\n      idToElection[electionId] = election({\r\n          numberOfCandidates: numberOfCandidates,\r\n          namesOfCandidates: namesOfCandidates,\r\n          duration: duration,\r\n          startTime: block.timestamp,\r\n          isActive:true\r\n      });\r\n   emit electionCreated(electionId, namesOfCandidates);   \r\n}\r\n\r\nfunction voteForCandidate(uint256 electionId, string memory candidate, bool panic) external isValidCandidate( electionId, candidate){\r\n    require(block.timestamp < idToElection[electionId].startTime.add(idToElection[electionId].duration),\"Election has ended\" );\r\n    require(hasVoted[electionId][msg.sender] == false,\" user has already voted\");\r\n    require(idToElection[electionId].isActive == true,\"Election is not active\");\r\n    if(panic == false){\r\n        candidateVotes[electionId][candidate]= candidateVotes[electionId][candidate].add(1);\r\n        hasVoted[electionId][msg.sender] = true;\r\n    }\r\n    emit voted(electionId, candidate, msg.sender);\r\n}\r\n\r\nfunction cancleElection(uint256 electionId) external onlyOwner{\r\n    require(electionId<= _electionIdTracker.current(),\"electionId doesn't exist\");\r\n    require(block.timestamp < idToElection[electionId].startTime.add(idToElection[electionId].duration),\"Election has already ended\" );\r\n    idToElection[electionId].isActive = false;\r\n    emit electionCancelled(electionId);\r\n}\r\n\r\nmodifier isValidCandidate(uint256 electionId, string memory candidate){\r\n    string[] memory candidates = idToElection[electionId].namesOfCandidates;\r\n    bool valid;\r\n    for(uint256 i = 0; i<candidates.length;i++){\r\n        if((keccak256(bytes(candidates[i]))==keccak256(bytes(candidate)))){\r\n            valid = true;\r\n            _;\r\n                }\r\n    }\r\n}\r\n \r\n}",
  "sourcePath": "C:\\Users\\sj931\\OneDrive\\Desktop\\iVote-temp\\ethereum\\contracts\\iVote.sol",
  "compiler": {
    "name": "solc",
    "version": "0.8.3+commit.8d00100c.Emscripten.clang"
  },
  "schemaVersion": "3.4.3",
  "updatedAt": "2021-11-09T11:25:20.859Z",
  "networkType": "ethereum",
  "devdoc": {
    "kind": "dev",
    "methods": {
      "owner()": {
        "details": "Returns the address of the current owner."
      },
      "renounceOwnership()": {
        "details": "Leaves the contract without owner. It will not be possible to call `onlyOwner` functions anymore. Can only be called by the current owner. NOTE: Renouncing ownership will leave the contract without an owner, thereby removing any functionality that is only available to the owner."
      },
      "transferOwnership(address)": {
        "details": "Transfers ownership of the contract to a new account (`newOwner`). Can only be called by the current owner."
      }
    },
    "version": 1
  },
  "userdoc": {
    "kind": "user",
    "methods": {},
    "version": 1
  }
}